:100000000C943A000C9457000C9457000C94C000C8
:100010000C9457000C9457000C9457000C94570004
:100020000C9457000C9457000C9457000C945700F4
:100030000C9457000C9457000C9457000C945700E4
:100040000C9457000C9457000C9485000C945700A6
:100050000C9457000C9457000C9457000C945700C4
:100060000C9457000C9457006364696E6F7073753D
:1000700078585B0011241FBECFEFD8E0DEBFCDBFA4
:1000800011E0A0E0B1E0E4E9F6E102C005900D92D4
:10009000AA36B107D9F711E0AAE6B1E001C01D9276
:1000A000AA37B107E1F70E948E010C94480B0C941B
:1000B00000009093C5008093C400E1ECF0E08081E3
:1000C0008861808386E08093C200529A5A9808958E
:1000D000982F8091C00085FFFCCF9093C6000895B3
:1000E000AC0120E030E0FA01E20FF31FE0818091E3
:1000F000C00085FFFCCFE093C600E43229F02F5FFB
:100100003F4F2630310579F708951F920F920FB6B1
:100110000F9211242F938F939F93EF93FF9320912E
:10012000C600203419F12432A1F480916A01909123
:100130006B01FC01EC58FE4F1082019690936B010D
:1001400080936A0181E090E090936D0180936C014F
:100150000DC080916A0190916B01FC01EC58FE4F3B
:100160002083019690936B0180936A01FF91EF9138
:100170009F918F912F910F900FBE0F901F90189508
:100180001F920F920FB60F9211248F939F9383B1FA
:10019000982F90719093790188708093710180916C
:1001A0007201882301F580917901882381F0809183
:1001B0007101882361F481E08093730180916F0164
:1001C0009091700101969093700180936F018091DE
:1001D0007901882309F075C080917101882309F4A1
:1001E00070C083E063C080917201813009F5809115
:1001F0007901882381F080917101882361F082E088
:100200008093730180916F0190917001019690939A
:10021000700180936F0180917901882309F051C0AA
:1002200080917101882309F04CC01092730140C085
:10023000809172018230F1F480917901882381F4F8
:1002400080917101882361F083E080937301809134
:100250006F019091700101969093700180936F01EE
:1002600080917901882369F180917101882349F592
:1002700081E01CC080917901882379F4809171011B
:10028000882359F41092730180916F01909170014D
:1002900001969093700180936F018091790188237A
:1002A00081F080917101882361F082E08093730175
:1002B00080916F01909170010197909370018093EC
:1002C0006F019091730180917201981739F081E06C
:1002D00080936E0180917301809372019F918F9141
:1002E0000F900FBE0F901F9018950F931F9380E0F3
:1002F00060E00E94170400E011E0C8010E94FB03C7
:1003000081E060E00E941704C8010E94FB0380E0C6
:1003100060E00E9417041F910F9108952F923F9261
:100320004F925F926F927F928F929F92AF92BF9205
:10033000CF92DF92EF92FF920F931F93DF93CF93B1
:10034000CDB7DEB76E970FB6F894DEBF0FBECDBF48
:100350000E94210487E690E00E9459000E946A04EE
:10036000539A259A88B18C6088B985B1886185B91E
:1003700080916B00886180936B008091680083603E
:10038000809368008091C10080688093C100789458
:100390000E94750180E060E00E94170483E191E013
:1003A0000E94FB0381E064E00E9417048FE191E06A
:1003B0000E94FB0380E197E220E931E0F9013197E7
:1003C000F1F70197D9F780E060E00E9417040E94DE
:1003D000750186B1982F9071909379018870809300
:1003E000710188EC90E00E94E509E82E8CE291E032
:1003F0000E94E509F82E8DB79EB70A970FB6F894BC
:100400009EBF0FBE8DBFEDB7FEB731968E01055F63
:100410001F4FADB7BEB712961C930E93119784E190
:1004200090E09383828387E291E095838483E682E0
:100430001782F08611860E9428058DB79EB70A960E
:100440000FB6F8949EBF0FBE8DBF80E060E00E94A3
:100450001704C8010E94FB0381E060E00E941704BA
:1004600088E391E00E94FB035B9A5524B4E7AB2E2E
:10047000B1E0BB2EA4E06A2E712CF8E58F2EF1E0DE
:100480009F2ED02E012FECE52E2EE1E03E2E74E2C1
:10049000C72E6BE2462E329911C01092690180E09E
:1004A00060E00E94170486E491E00E94FB0380E074
:1004B00069E00E9417048BE491E013C0339913C0E4
:1004C00091E09093690180E060E00E9417048FE45E
:1004D00091E00E94FB0380E069E00E94170484E53C
:1004E00091E00E94FB0380916E01813009F079C098
:1004F00010926E0180916901813089F480916F01C1
:10050000909170016E2D680F653608F064E6E62E56
:100510006F1508F4EF2C88EC90E06E2D10C08091E0
:100520006F01909170016F2D680F683208F468E2D6
:10053000F62EE61608F4FE2C8CE291E06F2D0E9458
:10054000ED091092700110926F0180E065E00E9449
:100550001704ADB7BEB718970FB6F894BEBF0FBE5D
:10056000ADBFEDB7FEB731961296BC92AE92119721
:100570007382628295828482E68217820E942805B5
:100580008DB79EB708960FB6F8949EBF0FBE8DBF6D
:10059000C5010E94FB0380E06DE00E941704ADB727
:1005A000BEB718970FB6F894BEBF0FBEADBFEDB77C
:1005B000FEB731961296BC92AE9211977382628208
:1005C00095828482F68217820E9428058DB79EB795
:1005D00008960FB6F8949EBF0FBE8DBFC5010E944E
:1005E000FB03CE0101960E94D5042A8130E02770DA
:1005F0003070322F2227898190E0282B392BC901B6
:1006000043E0880F991F4A95E1F7820F931F60E539
:1006100070E00E940105162F105E81E065E00E94E7
:100620001704ADB7BEB718970FB6F894BEBF0FBE8C
:10063000ADBFEDB7FEB731961196DC9211971296C9
:100640000C938AE090E09383828395828482168360
:1006500017820E942805ADB7BEB718960FB6F8945A
:10066000BEBF0FBEADBF8D2D902F0E94FB03511654
:1006700009F447C0B0E4BD8311114E828DB79EB717
:1006800008970FB6F8949EBF0FBE8DBFEDB7FEB7AB
:100690003196ADB7BEB71196DC92119712960C93B6
:1006A0007382628235822482168317820E94280513
:1006B0008DB79EB708960FB6F8949EBF0FBE8DBF3C
:1006C000143640F08B858F838C8588878D8589874C
:1006D000CA860AC08B851A3028F08F838C8588875C
:1006E000C98602C08F83C886CE0105960E9470001D
:1006F00080E060E10E9417048FE591E00E94FB0317
:10070000512E80916C0190916D01019709F04DC0BF
:1007100010926D0110926C0110926B0110926A019F
:1007200081E06DE00E94170485E691E00E94FB03E2
:1007300081E06DE00E94170400D000D000D0EDB73A
:10074000FEB73196ADB7BEB71296BC92AE92119776
:100750003382228283E090E08C0F9D1F95838483F7
:100760000E94590500D0EDB7FEB73196ADB7BEB7C0
:100770001196DC92119712960C938AE090E0938385
:100780008283958284828B819C81978386830E9459
:100790002805ADB7BEB718960FB6F894BEBF0FBE0A
:1007A000ADBF8D2D902F0E94FB03E11610F45B9AD4
:1007B00001C05B981F1510F42D9A6DCE2D986BCE4D
:1007C0009BB19F709BB99BB1807F892B8BB9299A74
:1007D000299A299808951F93182F289A0E94E003B8
:1007E000812F8295807F0E94E00380E49FE1019742
:1007F000F1F71F910895CF93DF93EC0102C00E949F
:10080000EB0389918823D9F7DF91CF9108951F9346
:10081000182F28980E94E003812F8295807F0E94E4
:10082000E00380E49FE10197F1F71F910895882389
:1008300019F4862F805802C0862F80540E94070426
:100840000895579A569A559A549A219A209A80E672
:100850009AEE0197F1F780E30E94E00380E29EE4C4
:100860000197F1F780E30E94E00380EE91E00197A9
:10087000F1F780E30E94E00380E20E94E00380E45D
:100880009FE10197F1F788E20E9407048FE00E9440
:1008900007040895ACE7B0E09C9190649C939C9110
:1008A000982B9C93EAE7F0E08081876080838C91AD
:1008B00080628C93808180688083089580917A0023
:1008C000806480937A0080917A0086FDFCCF8091CD
:1008D000790008953D98459888EC90E020E931E052
:1008E000F9013197F1F70197D9F708953D9A80E61C
:1008F00099E00197F1F73D988CE091E00197F1F7CD
:10090000359B02C080E00895359BFECF88EC90E0D7
:100910000197F1F781E008953D9A8AE08A95F1F711
:100920003D9880EF90E00197F1F708953D9A80EFB0
:1009300090E00197F1F73D988AE08A95F1F70895E4
:100940003D9A8AE08A95F1F73D9885E38A95F1F71B
:1009500086B1E0ECF0E03197F1F7807208950F93E3
:100960001F93082F18E000FF03C00E948C0402C0F0
:100970000E949604115011F00695F5CF1F910F912A
:100980000895FF920F931F9388E0F82E00E011E086
:100990000E94A0048111012BFA9411F0110FF8CFDD
:1009A000802F1F910F91FF9008951F93CF93DF9396
:1009B000EC010E947604882351F08CEC0E94AF0475
:1009C00084E40E94AF040E94A0048823E1F30E9403
:1009D0007604882391F08CEC0E94AF048EEB0E9489
:1009E000AF040E94C10488830E94C104898310E07F
:1009F0000E94C1041F5F1730D9F7DF91CF911F917B
:100A0000089597FB092E07260AD077FD04D00CD055
:100A100006D000201AF4709561957F4F0895F6F77F
:100A2000909581959F4F0895AA1BBB1B51E107C06C
:100A3000AA1FBB1FA617B70710F0A61BB70B881F6E
:100A4000991F5A95A9F780959095BC01CD010895FD
:100A5000AEE0B0E0EEE2F5E00C941F0B0D891E89CC
:100A60008F89988D97FF02C080E090E801979E8360
:100A70008D831A83098386E08C839E01255E3F4F18
:100A8000CE010196698D7A8DA9010E9473054D8171
:100A90005E8157FD0AC02F813885421753070CF439
:100AA0009A01020F131FF80110822E96E4E00C94B5
:100AB0003B0BAEE0B0E0EFE5F5E00C94210B85E0F8
:100AC0008C838B899C899A8389839E01295E3F4F01
:100AD000CE0101966D897E89A9010E94D4082E96C7
:100AE000E2E00C943D0BABE0B0E0E9E7F5E00C94FC
:100AF000110B3C012B015A01FC01178216828381E4
:100B000081FD03C06FEF7FEFC6C19AE0892E1E0101
:100B10000894211C311CF3012381F20123FD8591EE
:100B200023FF81912F01882309F4B2C1853239F462
:100B300023FD859123FF81912F01853229F490E0D7
:100B4000B3010E946A0AE7CF982FFF24EE2499246C
:100B5000FFE1FF15D0F09B3269F09C3228F490320F
:100B600059F0933291F40EC09D3249F0903369F4FC
:100B700041E024C052E0F52A84E0F82A28C098E039
:100B8000F92A25C0E0E1FE2A22C0F7FC29C0892FFE
:100B900080538A3070F4F6FE05C0989C902C112486
:100BA000980E15C0E89CE02C1124E80EF0E2FF2A14
:100BB0000EC09E3229F4F6FC6BC140E4F42A07C053
:100BC0009C3619F450E8F52A02C0983649F4F2012F
:100BD00023FD959123FF91912F01992309F0B8CF1F
:100BE000892F8554833018F08052833038F444E0E4
:100BF00050E0A40EB51E5FE359830FC0933631F069
:100C0000933779F0933509F056C020C0F501808103
:100C1000898342E050E0A40EB51E610101E010E0BE
:100C200012C0F501C080D180F6FC03C06FEF7FEFEA
:100C300002C0692D70E042E050E0A40EB51EC6016E
:100C40000E941D0A8C015FE7F52214C0F501C080E7
:100C5000D180F6FC03C06FEF7FEF02C0692D70E01A
:100C600042E050E0A40EB51EC6010E94120A8C019B
:100C700050E8F52AF3FE07C01AC080E290E0B30105
:100C80000E946A0AEA948E2D90E008171907A8F3CB
:100C90000EC0F601F7FC8591F7FE81916F0190E09F
:100CA000B3010E946A0AE110EA9401501040011554
:100CB000110579F7EAC0943611F0993669F5F7FE17
:100CC00008C0F501208131814281538184E090E0A8
:100CD0000AC0F501808191819C01442737FD409530
:100CE000542F82E090E0A80EB91E9FE6F92257FF2C
:100CF00009C050954095309521953F4F4F4F5F4F1C
:100D0000E0E8FE2ACA01B901A1012AE030E00E9410
:100D1000B00AD82ED21840C0953729F41F2D1F7E57
:100D20002AE030E01DC01F2D197F9F3661F09037FB
:100D300020F4983509F0ACC00FC0903739F09837DF
:100D400009F0A6C004C028E030E00AC0106114FD1C
:100D5000146020E130E004C014FD166020E132E0B0
:100D600017FF08C0F501608171818281938144E0A1
:100D700050E008C0F50180819181BC0180E090E0E5
:100D800042E050E0A40EB51EA1010E94B00AD82E88
:100D9000D2188FE7F82EF122F6FE0BC05EEFF52297
:100DA000D91438F4F4FE07C0F2FC05C08FEEF82227
:100DB00002C01D2D01C0192DF4FE0DC0FE01ED0D68
:100DC000F11D8081803319F499EEF92208C01F5F6C
:100DD000F2FE05C003C08F2D867809F01F5F0F2D2E
:100DE000F3FC14C0F0FE0FC01E1510F09D2C0BC0BC
:100DF0009D2C9E0C911A1E2D06C080E290E0B3013E
:100E00000E946A0A1F5F1E15C0F304C01E1510F46D
:100E1000E11A01C0EE2404FF0FC080E390E0B301AB
:100E20000E946A0A02FF1DC001FD03C088E790E02E
:100E30000EC088E590E00BC0802F867891F001FF0E
:100E400002C08BE201C080E2F7FC8DE290E0B301CA
:100E50000E946A0A06C080E390E0B3010E946A0A19
:100E60009A94D914C0F3DA94F101ED0DF11D80814B
:100E700090E0B3010E946A0ADD20A9F706C080E273
:100E800090E0B3010E946A0AEA94EE20C1F743CED3
:100E9000F30166817781CB012B96E2E10C942D0B57
:100EA000FC0120FD08C023FD05C022FF02C07383A2
:100EB0006283518340830895EF92FF920F931F93B3
:100EC00044FF02C033E011C046FF02C034E00DC051
:100ED000DB01FC01AA0FBB1FEE1FFF1F1094D1F70F
:100EE0006A0F7B1F8E1F9F1F31E0660F771F881FC1
:100EF000991F3150D1F77B018C01E20EF11C011DCD
:100F0000111DA8019701B701CA011F910F91FF9010
:100F1000EF9008950F931F93CF93DF938C01C80137
:100F20000E94280AEC0197FD08C00E94FF09892B46
:100F3000B1F7CE01B8010E94960ACE01DF91CF91A0
:100F40001F910F910895A0E0B0E0E9EAF7E00C945A
:100F5000190BEC01C62E5A01122F0E94280AAC016F
:100F60008B3219F08D3251F41068CA9409F46DC0B7
:100F7000CE010E94280AAC0197FD67C06DEFD62E06
:100F8000D1228D2D807301F54033F1F4CA9409F418
:100F900047C0CE010E94280AAC0197FD41C082E003
:100FA000D82A483711F0483559F480E4D82ACA9431
:100FB000B9F1CE010E94280AAC0199232CF430C06B
:100FC000D6FC02C080E1D82AEE24FF248701242F1A
:100FD0002053283088F0D4FC09C02A3068F0D6FEAF
:100FE00005C02F7D822F8151863028F0CA01BE01B5
:100FF0000E94960A12C02750C801B7014D2D0E94C9
:101000005C077B018C0182E0D82ACA9461F0CE0192
:101010000E94280AAC0197FFDACFD1FC04C015C0AA
:10102000EE24FF248701D7FE08C010950095F094A8
:10103000E094E11CF11C011D111DC501B801A701BF
:101040002D2D0E94500781E001C080E0CDB7DEB7B2
:10105000EAE00C94350BA0E2B0E0E1E3F8E00C9498
:10106000150B6C01A62E8A017901FE01319680E2F2
:10107000DF011D928A95E9F770E030E060E040E022
:1010800050E04F01A1E0B0E0F6018381F70183FD5C
:10109000259183FF21917F01222309F47EC02E3503
:1010A00019F44115510569F1872F90E084179507D0
:1010B00044F42D3551F12D3221F4332329F431E05C
:1010C00021C0332309F4622F322F832F8695869512
:1010D0008695F401E80FF11D832F87703D0102C052
:1010E000660C771C8A95E2F7208126292083361723
:1010F00011F430E007C0361710F43F5FE6CF3150EF
:10110000E4CF71E04F5F5F4FBFCF332319F08E8183
:1011100080628E83772359F0FE0131969E012F5D08
:101120003F4F808180958193E217F307D1F7BB246D
:10113000B3944E010894811C911CC6010E94280A98
:10114000AC0197FD22C0869586958695F401E80F3F
:10115000F11D808190E09A012770307002C0959552
:1011600087952A95E2F780FD05C0CA01B6010E9465
:10117000960A0BC00115110519F0D8014D938D0188
:10118000AA94BB24AA20C9F602C0BB2031F40115E1
:10119000110529F0F801108202C0EE24FF24C701D6
:1011A000A096EEE00C94310BA0E0B0E0EAEDF8E0A0
:1011B0000C94150B5C016B013A01FC01178216823D
:1011C0008824EAC0812F90E00E94FF09892B21F03A
:1011D000C5010E948A07E0C0153249F4F601F3FC0C
:1011E0006591F3FE61916F01653269F415E2C50105
:1011F0000E94280A97FDDCC0181709F4CDC0B5017C
:101200000E94960ADAC06A3219F0162F00E006C072
:10121000F3FC1591F3FE11916F0101E099240FC0C9
:101220000260692D70E080E090E040E20E945C077F
:10123000962EF601F3FC1591F3FE11916F01212F0B
:1012400020532A3068F301FD03C099249A9403C007
:10125000992009F4B2C0183621F01C3699F4F60131
:101260000BC0F601F3FC6591F3FE6191683619F04D
:101270006F01162F07C008600460F3FC1591F3FEA0
:1012800011916F01112309F498C088E690E0612F55
:1012900070E00E94070A892B09F48FC0802F00FF9D
:1012A00003C0EE24FF2407C0F301E080F18022E0B8
:1012B00030E0620E731E1E3651F4F50146815781EF
:1012C00060E070E0C701202F0E94500765C0133610
:1012D00091F481FD02C099249394C5010E94280ACB
:1012E00097FD66C0E114F10419F0F70181937F01C5
:1012F0009A9499F74FC01B3559F4C501692DA70180
:1013000096010E942B086C01009709F043C03DC074
:10131000C5010E948A0797FD4BC01F3659F110374F
:1013200028F4143629F1193639F527C0133719F086
:10133000153711F51DC0C5010E94280AEC0197FD63
:1013400011C00E94FF09892B29F0CE01B5010E942E
:10135000960A08C0E114F10419F0F701C1937F0166
:101360009A9449F7E114F104A9F0F701108212C030
:10137000006203C0006101C00064C501692DA701BE
:10138000202F0E94A307882329F4F501838180730D
:1013900079F413C000FF8394F501F380F601F3FCA8
:1013A0001591F3FE11916F01112309F00BCF05C0C8
:1013B000882019F42FEF3FEF02C0282D30E0C9013B
:1013C000CDB7DEB7EEE00C94310BF999FECF92BDAC
:1013D00081BDF89A992780B50895262FF999FECFF7
:1013E00092BD81BDF89A019700B4021639F01FBA78
:1013F00020BD0FB6F894FA9AF99A0FBE089591118C
:101400000DC1803219F089508550D0F70895FC0144
:101410000590061621F00020D9F7C00108953197F4
:10142000CF010895FC010590615070400110D8F77C
:10143000809590958E0F9F1F0895FC01615070401C
:1014400001900110D8F7809590958E0F9F1F0895F9
:10145000CF93DF93EC014B8140FF1AC046FF0AC0D7
:101460004F7B4B838E819F8101969F838E838A81E0
:10147000282F2BC042FF13C0E881F9818081282FDB
:10148000332727FD30952115310529F440624B8320
:101490002FEF3FEF1BC03196F983E88311C0EA8537
:1014A000FB85CE0109959C0197FF0AC09B812F5FA8
:1014B0003F4F11F080E201C080E1892B8B83E8CFA0
:1014C0008E819F8101969F838E8330E0C901DF91D9
:1014D000CF9108950F931F93CF93DF938C01EB016E
:1014E0008B8181FF1BC082FF0DC02E813F818C81CB
:1014F0009D812817390764F4E881F9810193F98304
:10150000E88306C0E885F985802F0995892B31F499
:101510008E819F8101969F838E8302C00FEF1FEF04
:10152000C801DF91CF911F910F9108959C01FB019C
:10153000838180FF11C086FD0FC09FEF2F3F3907C9
:1015400059F0228380648F7D838386819781019700
:101550009783868330E002C02FEF3FEFC9010895E3
:10156000FA01AA27283051F1203181F1E8946F93D4
:101570006E7F6E5F7F4F8F4F9F4FAF4FB1E03ED07A
:10158000B4E03CD0670F781F891F9A1FA11D680F18
:10159000791F8A1F911DA11D6A0F711D811D911D4B
:1015A000A11D20D009F468943F912AE0269F1124C0
:1015B0003019305D3193DEF6CF010895462F477024
:1015C000405D4193B3E00FD0C9F7F6CF462F4F707F
:1015D000405D4A3318F0495D31FD4052419302D0DD
:1015E000A9F7EACFB4E0A695979587957795679583
:1015F000BA95C9F700976105710508959B01AC0183
:101600000A2E06945795479537952795BA95C9F7A9
:10161000620F731F841F951FA01D089599278827A7
:1016200008952F923F924F925F926F927F928F9286
:101630009F92AF92BF92CF92DF92EF92FF920F9361
:101640001F93CF93DF93CDB7DEB7CA1BDB0B0FB66B
:10165000F894DEBF0FBECDBF09942A883988488828
:101660005F846E847D848C849B84AA84B984C884BE
:10167000DF80EE80FD800C811B81AA81B981CE0FB5
:10168000D11D0FB6F894DEBF0FBECDBFED0108959A
:04169000F894FFCFFC
:101694002020202020202020202020202020202046
:1016A4002020004572696320447567756179005094
:1016B400726F6A65637400484947483A2533642069
:1016C4004C6F773A2533640054656D703A202020BE
:1016D40020526D743A0048696768004C4F570048BF
:1016E400494748004C6F7700253364002564007433
:0A16F40073656E64002020200001E1
:00000001FF
