:100000000C943A000C9457000C9457000C94C000C8
:100010000C9475010C9457000C9457000C945700E5
:100020000C9457000C9457000C9457000C945700F4
:100030000C9457000C9457000C9457000C945700E4
:100040000C9457000C9457000C9485000C945700A6
:100050000C9457000C9457000C9457000C945700C4
:100060000C9457000C9457006364696E6F7073753D
:1000700078585B0011241FBECFEFD8E0DEBFCDBFA4
:1000800011E0A0E0B1E0E4EDF6E102C005900D92D0
:10009000AA36B107D9F711E0AAE6B1E001C01D9276
:1000A000AB37B107E1F70E9498010C94680B0C94F0
:1000B00000009093C5008093C400E1ECF0E08081E3
:1000C0008861808386E08093C200529A5A9808958E
:1000D000982F8091C00085FFFCCF9093C6000895B3
:1000E000AC0120E030E0FA01E20FF31FE0818091E3
:1000F000C00085FFFCCFE093C600E43229F02F5FFB
:100100003F4F2630310579F708951F920F920FB6B1
:100110000F9211242F938F939F93EF93FF9320912E
:10012000C600203419F12432A1F480916A01909123
:100130006B01FC01EB58FE4F1082019690936B010E
:1001400080936A0181E090E090936D0180936C014F
:100150000DC080916A0190916B01FC01EB58FE4F3C
:100160002083019690936B0180936A01FF91EF9138
:100170009F918F912F910F900FBE0F901F90189508
:100180001F920F920FB60F9211248F939F9383B1FA
:10019000982F907190937A0188708093720180916A
:1001A0007301882301F580917A01882381F0809181
:1001B0007201882361F481E0809374018091700161
:1001C00090917101019690937101809370018091DB
:1001D0007A01882309F075C080917201882309F49F
:1001E00070C083E063C080917301813009F5809114
:1001F0007A01882381F080917201882361F082E086
:100200008093740180917001909171010196909397
:1002100071018093700180917A01882309F051C0A7
:1002200080917201882309F04CC01092740140C083
:10023000809173018230F1F480917A01882381F4F6
:1002400080917201882361F083E080937401809132
:1002500070019091710101969093710180937001EA
:1002600080917A01882369F180917201882349F590
:1002700081E01CC080917A01882379F48091720119
:10028000882359F41092740180917001909171014A
:100290000196909371018093700180917A01882377
:1002A00081F080917201882361F082E08093740173
:1002B00080917001909171010197909371018093E9
:1002C00070019091740180917301981739F081E069
:1002D00080936F0180917401809373019F918F913E
:1002E0000F900FBE0F901F9018951F920F920FB690
:1002F0000F9211240F900FBE0F901F9018950F931F
:100300001F9380E060E00E94370400E011E0C80124
:100310000E941B0481E060E00E943704C8010E9433
:100320001B0480E060E00E9437041F910F91089544
:100330002F923F924F925F926F927F928F929F92F5
:10034000AF92BF92CF92DF92EF92FF920F931F93E3
:10035000DF93CF93CDB7DEB7E2970FB6F894DEBF49
:100360000FBECDBF0E94410480E00E946A0487E670
:1003700090E00E9459000E948A04539A259A88B1FD
:100380008C6088B980916C008C6080936C0085B122
:10039000886185B980916B00886180936B00809142
:1003A00068008360809368008091C10080688093BA
:1003B000C10078940E947F0180E060E00E943704D1
:1003C00083E191E00E941B0481E064E00E94370415
:1003D0008FE191E00E941B0480E197E220E931E087
:1003E000F9013197F1F70197D9F780E060E00E94B9
:1003F00037040E947F0186B1982F907190937A0103
:1004000088708093720188EC90E00E94050AE82EC3
:100410008CE291E00E94050AF82E8DB79EB70A97EC
:100420000FB6F8949EBF0FBE8DBFEDB7FEB73196E5
:100430008E01015E1F4FADB7BEB712961C930E938F
:10044000119784E190E09383828387E291E0958322
:100450008483E6821782F08611860E9448058DB754
:100460009EB70A960FB6F8949EBF0FBE8DBF80E070
:1004700060E00E943704C8010E941B0481E060E034
:100480000E94370488E391E00E941B045B9A552484
:1004900044244394A5E7CA2EA1E0DA2EF4E06F2E9F
:1004A000712CE8E58E2EE1E09E2EB02E012F7CE52A
:1004B000272E71E0372E64E2A62E329913C04092A7
:1004C0006E011092690180E060E00E94370486E4CA
:1004D00091E00E941B0480E069E00E9437048BE4F5
:1004E00091E014C0339914C04092690110926E01DA
:1004F00080E060E00E9437048FE491E00E941B04DA
:1005000080E069E00E94370484E591E00E941B04CA
:1005100080E29EE40197F1F780916F01813009F04C
:100520007DC010926F0180916901813089F48091C2
:100530007001909171016E2D680F653608F064E6C8
:10054000E62E6F1508F4EF2C88EC90E06E2D10C0AD
:1005500080917001909171016F2D680F683208F4DD
:1005600068E2F62EE61608F4FE2C8CE291E06F2D80
:100570000E940D0A109271011092700180E065E0F6
:100580000E943704ADB7BEB718970FB6F894BEBF38
:100590000FBEADBFEDB7FEB731961296DC92CE928C
:1005A00011977382628295828482E68217820E940A
:1005B00048058DB79EB708960FB6F8949EBF0FBE3C
:1005C0008DBFC6010E941B0480E06DE00E943704CD
:1005D000ADB7BEB718970FB6F894BEBF0FBEADBF8C
:1005E000EDB7FEB731961296DC92CE9211977382D8
:1005F000628295828482F68217820E9448058DB7B6
:100600009EB708960FB6F8949EBF0FBE8DBFC60169
:100610000E941B048B2D902F0E941B04CE0101967B
:100620000E94F5042A8130E027703070322F222793
:10063000898190E0282B392BC90143E0880F991F4D
:100640004A95E1F7820F931F60E570E00E94210553
:10065000162F105E81E065E00E943704ADB7BEB78B
:1006600018970FB6F894BEBF0FBEADBFEDB7FEB77B
:1006700031968BE090E08C0F9D1F12969C938E9389
:100680001197AAE0B0E0B383A28395828482168397
:1006900017820E9448058DB79EB708960FB6F8944A
:1006A0009EBF0FBE8DBFCE010B960E941B0451163C
:1006B00009F447C090E49D83ABE2AE838DB79EB74B
:1006C00008970FB6F8949EBF0FBE8DBFEDB7FEB76B
:1006D0003196ADB7BEB71196BC92119712960C9396
:1006E0007382628235822482168317820E944805B3
:1006F0008DB79EB708960FB6F8949EBF0FBE8DBFFC
:10070000153640F08F8D8F8388A1888789A18987CE
:10071000AA860AC08F8D1A3028F08F8388A1888717
:10072000A98602C08F83A886CE0105960E9470001C
:1007300080E060E10E9437048FE591E00E941B0495
:10074000512E80916C0190916D01019709F04DC07F
:1007500010926D0110926C0110926B0110926A015F
:1007600081E06DE00E94370485E691E00E941B0461
:1007700081E06DE00E94370400D000D000D0EDB7DA
:10078000FEB73196ADB7BEB71296DC92CE921197F6
:100790003382228283E090E08C0F9D1F95838483B7
:1007A0000E94790500D0EDB7FEB73196ADB7BEB760
:1007B0001196BC92119712960C938AE090E0938365
:1007C0008283958284828B819C81978386830E9419
:1007D0004805ADB7BEB718960FB6F894BEBF0FBEAA
:1007E000ADBF8B2D902F0E941B04E11610F45B9A75
:1007F00001C05B981F1510F42D9A5FCE2D985DCE29
:100800009BB19F709BB99BB1807F892B8BB9299A33
:10081000299A299808951F93182F289A0E94000456
:10082000812F8295807F0E94000480E49FE10197E0
:10083000F1F71F910895CF93DF93EC0102C00E945E
:100840000B0489918823D9F7DF91CF9108951F93E5
:10085000182F28980E940004812F8295807F0E9483
:10086000000480E49FE10197F1F71F910895882328
:1008700019F4862F805802C0862F80540E942704C6
:100880000895579A569A559A549A219A209A80E632
:100890009AEE0197F1F780E30E94000480E29EE463
:1008A0000197F1F780E30E94000480EE91E0019748
:1008B000F1F780E30E94000480E20E94000480E4DB
:1008C0009FE10197F1F788E20E9427048FE00E94E0
:1008D00027040895ACE7B0E09C9190649C939C91B0
:1008E000982B9C93EAE7F0E08081876080838C916D
:1008F00080628C93808180688083089580917A00E3
:10090000806480937A0080917A0086FDFCCF80918C
:10091000790008953D98459888EC90E020E931E011
:10092000F9013197F1F70197D9F708953D9A80E6DB
:1009300099E00197F1F73D988CE091E00197F1F78C
:10094000359B02C080E00895359BFECF88EC90E097
:100950000197F1F781E008953D9A8AE08A95F1F7D1
:100960003D9880EF90E00197F1F708953D9A80EF70
:1009700090E00197F1F73D988AE08A95F1F70895A4
:100980003D9A8AE08A95F1F73D9885E38A95F1F7DB
:1009900086B1E0ECF0E03197F1F7807208950F93A3
:1009A0001F93082F18E000FF03C00E94AC0402C090
:1009B0000E94B604115011F00695F5CF1F910F91CA
:1009C0000895FF920F931F9388E0F82E00E011E046
:1009D0000E94C0048111012BFA9411F0110FF8CF7D
:1009E000802F1F910F91FF9008951F93CF93DF9356
:1009F000EC010E949604882351F08CEC0E94CF04F5
:100A000084E40E94CF040E94C0048823E1F30E9482
:100A10009604882391F08CEC0E94CF048EEB0E9408
:100A2000CF040E94E10488830E94E104898310E0DE
:100A30000E94E1041F5F1730D9F7DF91CF911F911A
:100A4000089597FB092E07260AD077FD04D00CD015
:100A500006D000201AF4709561957F4F0895F6F73F
:100A6000909581959F4F0895AA1BBB1B51E107C02C
:100A7000AA1FBB1FA617B70710F0A61BB70B881F2E
:100A8000991F5A95A9F780959095BC01CD010895BD
:100A9000AEE0B0E0EEE4F5E00C943F0B0D891E896A
:100AA0008F89988D97FF02C080E090E801979E8320
:100AB0008D831A83098386E08C839E01255E3F4FD8
:100AC000CE010196698D7A8DA9010E9493054D8111
:100AD0005E8157FD0AC02F813885421753070CF4F9
:100AE0009A01020F131FF80110822E96E4E00C9475
:100AF0005B0BAEE0B0E0EFE7F5E00C94410B85E076
:100B00008C838B899C899A8389839E01295E3F4FC0
:100B1000CE0101966D897E89A9010E94F4082E9666
:100B2000E2E00C945D0BABE0B0E0E9E9F5E00C9499
:100B3000310B3C012B015A01FC0117821682838183
:100B400081FD03C06FEF7FEFC6C19AE0892E1E01C1
:100B50000894211C311CF3012381F20123FD8591AE
:100B600023FF81912F01882309F4B2C1853239F422
:100B700023FD859123FF81912F01853229F490E097
:100B8000B3010E948A0AE7CF982FFF24EE2499240C
:100B9000FFE1FF15D0F09B3269F09C3228F49032CF
:100BA00059F0933291F40EC09D3249F0903369F4BC
:100BB00041E024C052E0F52A84E0F82A28C098E0F9
:100BC000F92A25C0E0E1FE2A22C0F7FC29C0892FBE
:100BD00080538A3070F4F6FE05C0989C902C112446
:100BE000980E15C0E89CE02C1124E80EF0E2FF2AD4
:100BF0000EC09E3229F4F6FC6BC140E4F42A07C013
:100C00009C3619F450E8F52A02C0983649F4F201EE
:100C100023FD959123FF91912F01992309F0B8CFDE
:100C2000892F8554833018F08052833038F444E0A3
:100C300050E0A40EB51E5FE359830FC0933631F028
:100C4000933779F0933509F056C020C0F5018081C3
:100C5000898342E050E0A40EB51E610101E010E07E
:100C600012C0F501C080D180F6FC03C06FEF7FEFAA
:100C700002C0692D70E042E050E0A40EB51EC6012E
:100C80000E943D0A8C015FE7F52214C0F501C08087
:100C9000D180F6FC03C06FEF7FEF02C0692D70E0DA
:100CA00042E050E0A40EB51EC6010E94320A8C013B
:100CB00050E8F52AF3FE07C01AC080E290E0B301C5
:100CC0000E948A0AEA948E2D90E008171907A8F36B
:100CD0000EC0F601F7FC8591F7FE81916F0190E05F
:100CE000B3010E948A0AE110EA94015010400115F4
:100CF000110579F7EAC0943611F0993669F5F7FED7
:100D000008C0F501208131814281538184E090E067
:100D10000AC0F501808191819C01442737FD4095EF
:100D2000542F82E090E0A80EB91E9FE6F92257FFEB
:100D300009C050954095309521953F4F4F4F5F4FDB
:100D4000E0E8FE2ACA01B901A1012AE030E00E94D0
:100D5000D00AD82ED21840C0953729F41F2D1F7EF7
:100D60002AE030E01DC01F2D197F9F3661F09037BB
:100D700020F4983509F0ACC00FC0903739F098379F
:100D800009F0A6C004C028E030E00AC0106114FDDC
:100D9000146020E130E004C014FD166020E132E070
:100DA00017FF08C0F501608171818281938144E061
:100DB00050E008C0F50180819181BC0180E090E0A5
:100DC00042E050E0A40EB51EA1010E94D00AD82E28
:100DD000D2188FE7F82EF122F6FE0BC05EEFF52257
:100DE000D91438F4F4FE07C0F2FC05C08FEEF822E7
:100DF00002C01D2D01C0192DF4FE0DC0FE01ED0D28
:100E0000F11D8081803319F499EEF92208C01F5F2B
:100E1000F2FE05C003C08F2D867809F01F5F0F2DED
:100E2000F3FC14C0F0FE0FC01E1510F09D2C0BC07B
:100E30009D2C9E0C911A1E2D06C080E290E0B301FD
:100E40000E948A0A1F5F1E15C0F304C01E1510F40D
:100E5000E11A01C0EE2404FF0FC080E390E0B3016B
:100E60000E948A0A02FF1DC001FD03C088E790E0CE
:100E70000EC088E590E00BC0802F867891F001FFCE
:100E800002C08BE201C080E2F7FC8DE290E0B3018A
:100E90000E948A0A06C080E390E0B3010E948A0A99
:100EA0009A94D914C0F3DA94F101ED0DF11D80810B
:100EB00090E0B3010E948A0ADD20A9F706C080E213
:100EC00090E0B3010E948A0AEA94EE20C1F743CE73
:100ED000F30166817781CB012B96E2E10C944D0BF7
:100EE000FC0120FD08C023FD05C022FF02C0738362
:100EF0006283518340830895EF92FF920F931F9373
:100F000044FF02C033E011C046FF02C034E00DC010
:100F1000DB01FC01AA0FBB1FEE1FFF1F1094D1F7CE
:100F20006A0F7B1F8E1F9F1F31E0660F771F881F80
:100F3000991F3150D1F77B018C01E20EF11C011D8C
:100F4000111DA8019701B701CA011F910F91FF90D0
:100F5000EF9008950F931F93CF93DF938C01C801F7
:100F60000E94480AEC0197FD08C00E941F0A892BC5
:100F7000B1F7CE01B8010E94B60ACE01DF91CF9140
:100F80001F910F910895A0E0B0E0E9ECF7E00C9418
:100F9000390BEC01C62E5A01122F0E94480AAC01EF
:100FA0008B3219F08D3251F41068CA9409F46DC077
:100FB000CE010E94480AAC0197FD67C06DEFD62EA6
:100FC000D1228D2D807301F54033F1F4CA9409F4D8
:100FD00047C0CE010E94480AAC0197FD41C082E0A3
:100FE000D82A483711F0483559F480E4D82ACA94F1
:100FF000B9F1CE010E94480AAC0199232CF430C00B
:10100000D6FC02C080E1D82AEE24FF248701242FD9
:101010002053283088F0D4FC09C02A3068F0D6FE6E
:1010200005C02F7D822F8151863028F0CA01BE0174
:101030000E94B60A12C02750C801B7014D2D0E9468
:101040007C077B018C0182E0D82ACA9461F0CE0132
:101050000E94480AAC0197FFDACFD1FC04C015C04A
:10106000EE24FF248701D7FE08C010950095F09468
:10107000E094E11CF11C011D111DC501B801A7017F
:101080002D2D0E94700781E001C080E0CDB7DEB752
:10109000EAE00C94550BA0E2B0E0E1E5F8E00C9436
:1010A000350B6C01A62E8A017901FE01319680E292
:1010B000DF011D928A95E9F770E030E060E040E0E2
:1010C00050E04F01A1E0B0E0F6018381F70183FD1C
:1010D000259183FF21917F01222309F47EC02E35C3
:1010E00019F44115510569F1872F90E08417950790
:1010F00044F42D3551F12D3221F4332329F431E01C
:1011000021C0332309F4622F322F832F86958695D1
:101110008695F401E80FF11D832F87703D0102C011
:10112000660C771C8A95E2F72081262920833617E2
:1011300011F430E007C0361710F43F5FE6CF3150AE
:10114000E4CF71E04F5F5F4FBFCF332319F08E8143
:1011500080628E83772359F0FE0131969E012F5DC8
:101160003F4F808180958193E217F307D1F7BB242D
:10117000B3944E010894811C911CC6010E94480A38
:10118000AC0197FD22C0869586958695F401E80FFF
:10119000F11D808190E09A012770307002C0959512
:1011A00087952A95E2F780FD05C0CA01B6010E9425
:1011B000B60A0BC00115110519F0D8014D938D0128
:1011C000AA94BB24AA20C9F602C0BB2031F40115A1
:1011D000110529F0F801108202C0EE24FF24C70196
:1011E000A096EEE00C94510BA0E0B0E0EAEFF8E03E
:1011F0000C94350B5C016B013A01FC0117821682DD
:101200008824EAC0812F90E00E941F0A892B21F0D8
:10121000C5010E94AA07E0C0153249F4F601F3FCAB
:101220006591F3FE61916F01653269F415E2C501C4
:101230000E94480A97FDDCC0181709F4CDC0B5011B
:101240000E94B60ADAC06A3219F0162F00E006C012
:10125000F3FC1591F3FE11916F0101E099240FC089
:101260000260692D70E080E090E040E20E947C071F
:10127000962EF601F3FC1591F3FE11916F01212FCB
:1012800020532A3068F301FD03C099249A9403C0C7
:10129000992009F4B2C0183621F01C3699F4F601F1
:1012A0000BC0F601F3FC6591F3FE6191683619F00D
:1012B0006F01162F07C008600460F3FC1591F3FE60
:1012C00011916F01112309F498C088E690E0612F15
:1012D00070E00E94270A892B09F48FC0802F00FF3D
:1012E00003C0EE24FF2407C0F301E080F18022E078
:1012F00030E0620E731E1E3651F4F50146815781AF
:1013000060E070E0C701202F0E94700765C01336AF
:1013100091F481FD02C099249394C5010E94480A6A
:1013200097FD66C0E114F10419F0F70181937F0184
:101330009A9499F74FC01B3559F4C501692DA7013F
:1013400096010E944B086C01009709F043C03DC014
:10135000C5010E94AA0797FD4BC01F3659F11037EF
:1013600028F4143629F1193639F527C0133719F046
:10137000153711F51DC0C5010E94480AEC0197FD03
:1013800011C00E941F0A892B29F0CE01B5010E94CD
:10139000B60A08C0E114F10419F0F701C1937F0106
:1013A0009A9449F7E114F104A9F0F701108212C0F0
:1013B000006203C0006101C00064C501692DA7017E
:1013C000202F0E94C307882329F4F50183818073AD
:1013D00079F413C000FF8394F501F380F601F3FC68
:1013E0001591F3FE11916F01112309F00BCF05C088
:1013F000882019F42FEF3FEF02C0282D30E0C901FB
:10140000CDB7DEB7EEE00C94510BF999FECF92BD4B
:1014100081BDF89A992780B50895262FF999FECFB6
:1014200092BD81BDF89A019700B4021639F01FBA37
:1014300020BD0FB6F894FA9AF99A0FBE089591114B
:101440000DC1803219F089508550D0F70895FC0104
:101450000590061621F00020D9F7C00108953197B4
:10146000CF010895FC010590615070400110D8F73C
:10147000809590958E0F9F1F0895FC0161507040DC
:1014800001900110D8F7809590958E0F9F1F0895B9
:10149000CF93DF93EC014B8140FF1AC046FF0AC097
:1014A0004F7B4B838E819F8101969F838E838A81A0
:1014B000282F2BC042FF13C0E881F9818081282F9B
:1014C000332727FD30952115310529F440624B83E0
:1014D0002FEF3FEF1BC03196F983E88311C0EA85F7
:1014E000FB85CE0109959C0197FF0AC09B812F5F68
:1014F0003F4F11F080E201C080E1892B8B83E8CF60
:101500008E819F8101969F838E8330E0C901DF9198
:10151000CF9108950F931F93CF93DF938C01EB012D
:101520008B8181FF1BC082FF0DC02E813F818C818A
:101530009D812817390764F4E881F9810193F983C3
:10154000E88306C0E885F985802F0995892B31F459
:101550008E819F8101969F838E8302C00FEF1FEFC4
:10156000C801DF91CF911F910F9108959C01FB015C
:10157000838180FF11C086FD0FC09FEF2F3F390789
:1015800059F0228380648F7D8383868197810197C0
:101590009783868330E002C02FEF3FEFC9010895A3
:1015A000FA01AA27283051F1203181F1E8946F9394
:1015B0006E7F6E5F7F4F8F4F9F4FAF4FB1E03ED03A
:1015C000B4E03CD0670F781F891F9A1FA11D680FD8
:1015D000791F8A1F911DA11D6A0F711D811D911D0B
:1015E000A11D20D009F468943F912AE0269F112480
:1015F0003019305D3193DEF6CF010895462F4770E4
:10160000405D4193B3E00FD0C9F7F6CF462F4F703E
:10161000405D4A3318F0495D31FD4052419302D09C
:10162000A9F7EACFB4E0A695979587957795679542
:10163000BA95C9F700976105710508959B01AC0142
:101640000A2E06945795479537952795BA95C9F769
:10165000620F731F841F951FA01D08959927882767
:1016600008952F923F924F925F926F927F928F9246
:101670009F92AF92BF92CF92DF92EF92FF920F9321
:101680001F93CF93DF93CDB7DEB7CA1BDB0B0FB62B
:10169000F894DEBF0FBECDBF09942A8839884888E8
:1016A0005F846E847D848C849B84AA84B984C8847E
:1016B000DF80EE80FD800C811B81AA81B981CE0F75
:1016C000D11D0FB6F894DEBF0FBECDBFED0108955A
:0416D000F894FFCFBC
:1016D4002020202020202020202020202020202006
:1016E4002020004572696320447567756179005054
:1016F400726F6A65637400484947483A2533642029
:101704004C6F773A2533640054656D703A2020207D
:1017140020526D743A0048696768004C4F5700487E
:10172400494748004C6F77002533640025640074F2
:0A17340073656E64002020200001A0
:00000001FF
