:100000000C9434000C9451000C9451000C94510049
:100010000C9451000C9451000C9451000C9451001C
:100020000C9451000C9451000C9451000C9451000C
:100030000C9451000C9451000C9451000C945100FC
:100040000C9451000C9451000C947D000C945100C0
:100050000C9451000C9451000C9451000C945100DC
:100060000C9451000C94510011241FBECFEFD8E026
:10007000DEBFCDBF11E0A0E0B1E0EEE4F4E002C0ED
:1000800005900D92A43EB107D9F711E0A4EEB1E0BE
:1000900001C01D92A83FB107E1F70E94C5000C9472
:1000A00025020C9400009093C5008093C400E1ECFD
:1000B000F0E080818861808386E08093C200539A5B
:1000C0005B980895982F8091C00085FFFCCF909396
:1000D000C6000895AC0120E030E0FA01E20FF31F02
:1000E000E0818091C00085FFFCCFE093C6002F5FC8
:1000F0003F4F2031310589F708951F920F920FB6B7
:100100000F9211242F938F939F93EF93FF9320913E
:10011000C6008091E4019091E501FC01E851FE4F99
:10012000208301969093E5018093E4018091E4019E
:100130009091E501409731F481E090E09093E701E0
:100140008093E601FF91EF919F918F912F910F90F6
:100150000FBE0F901F9018950F931F9380E060E0E3
:100160000E94AB0100E011E0C8010E948F0181E014
:1001700060E00E94AB01C8010E948F0180E060E056
:100180000E94AB011F910F910895EF92FF921F9370
:10019000CF93DF930E94B50180E00E94DE0187E6E5
:1001A00090E00E9453008091C10080688093C1005C
:1001B00078940E94AC0080E060E00E94AB0183E193
:1001C00091E00E948F0181E064E00E94AB018FE129
:1001D00091E00E948F0180E197E220E931E0F9018E
:1001E0003197F1F70197D9F780E060E00E94AB0109
:1001F0000E94AC008091CF019091D0010E948F01AC
:10020000C0E0D0E030E9E32E31E0F32E0E94F201AD
:10021000182F89528331D0F480E060E00E94AB0156
:10022000209719F4C9E0D0E001C02197FE01EE0F3C
:10023000FF1FE153FE4F808191810E948F018CED61
:1002400095E0F7013197F1F70197D9F7812F8B5599
:100250008331D8F480E060E00E94AB01CE010196CA
:100260006AE070E00E94FE01EC01FC01EE0FFF1F4E
:10027000E153FE4F808191810E948F018CED95E0CA
:10028000F7013197F1F70197D9F7145C1331A0F416
:1002900081E060E00E94AB01FE01EE0FFF1FE15321
:1002A000FE4F808191810E946A008CED95E0F701FC
:1002B0003197F1F70197D9F78091E6019091E70125
:1002C000019709F0A3CF1092E5011092E40110927A
:1002D000E7011092E60181E060E00E94AB0188EE48
:1002E00091E00E948F0192CF9BB19F709BB99BB10F
:1002F000807F892B8BB9299A299A299808951F9371
:10030000182F289A0E947401812F8295807F0E9465
:10031000740180E49FE10197F1F71F910895CF9355
:10032000DF93EC0102C00E947F0189918823D9F7F5
:10033000DF91CF9108951F93182F28980E94740180
:10034000812F8295807F0E94740180E49FE1019754
:10035000F1F71F910895882319F4862F805802C061
:10036000862F80540E949B010895579A569A559A59
:10037000549A219A209A80E69AEE0197F1F780E349
:100380000E94740180E29EE40197F1F780E30E94ED
:10039000740180EE91E00197F1F780E30E9474010F
:1003A00080E20E94740180E49FE10197F1F788E206
:1003B0000E949B018FE00E949B010895ACE7B0E092
:1003C0009C9190649C939C91982B9C93EAE7F0E01D
:1003D0008081876080838C9180628C93808180682B
:1003E0008083089580917A00806480937A00809160
:1003F0007A0086FDFCCF80917900089597FB092E45
:1004000007260AD077FD04D00CD006D000201AF4BD
:10041000709561957F4F0895F6F7909581959F4F60
:100420000895AA1BBB1B51E107C0AA1FBB1FA6173B
:10043000B70710F0A61BB70B881F991F5A95A9F78D
:0E04400080959095BC01CD010895F894FFCFF2
:10044E00202020202020202020202020202020209E
:10045E002020004572696320447567756179004CF0
:10046E00616220390048656C6C6F202020202020AE
:10047E00202020203100486F772061726520796F2F
:10048E00753F2020203200476F6F642E20596F7504
:10049E003F202020202033004261642E20596F75AA
:1004AE003F20202020202034005361642E20596FDD
:1004BE00753F2020202020203500476C61642E20BF
:1004CE00596F753F202020202036004D61642E206C
:1004DE00596F753F2020202020203700436861642B
:1004EE002E20596F753F2020202020380046616451
:1004FE002E20596F753F2020202020203900466184
:10050E006E7461737469632E2020202020300025C4
:10051E000136014701580169017A018B019C01AD39
:04052E0001BE010009
:00000001FF
