:100000000C9434000C9451000C9451000C94510049
:100010000C9451000C9451000C9451000C9451001C
:100020000C9451000C9451000C9451000C9453000A
:100030000C9451000C9451000C9451000C945100FC
:100040000C9451000C9451000C9451000C945100EC
:100050000C9451000C9451000C9451000C945100DC
:100060000C9451000C94510011241FBECFEFD8E026
:10007000DEBFCDBF11E0A0E0B1E0E6E9FAE002C0EA
:1000800005900D92AE32B107D9F711E0AEE2B1E0C2
:1000900001C01D92A033B107E1F70E947B000C94D0
:1000A00049050C9400001F920F920FB60F92112475
:1000B0008F9381E080932E018F910F900FBE0F9050
:1000C0001F9018950F931F9380E060E00E9411022B
:1000D00000E011E0C8010E94F50181E060E00E94AB
:1000E0001102C8010E94F50180E060E00E94110247
:1000F0001F910F9108954F925F926F927F928F920E
:100100009F92AF92BF92CF92DF92EF92FF920F93A6
:100110001F93DF93CF93CDB7DEB72A970FB6F8942E
:10012000DEBF0FBECDBF0E941B0280E060E00E94D8
:10013000110280E00E9444028091810088608093D7
:10014000810080916F00826080936F0088EA91E661
:1001500090938900809388008091810083608093D0
:1001600081000E94620083E191E00E94F50181E03C
:1001700064E00E9411028FE191E00E94F50180E1AC
:1001800097E220E931E0F9013197F1F70197D9F7CA
:100190000E946200789481E060E00E9411028DB7B5
:1001A0009EB70C970FB6F8949EBF0FBE8DBFEDB7EC
:1001B000FEB731968E010F5F1F4FADB7BEB71296D7
:1001C0001C930E93119785E090E09383828335E230
:1001D000E32E31E0F32EF582E48217821682118637
:1001E0001086138612860E9464028DB79EB70C9605
:1001F0000FB6F8949EBF0FBE8DBFC8010E94F501D7
:10020000BB24CC24DD2420E9422E21E0522E992467
:10021000939492E0892EA02E012F85E0682E712CF8
:100220001E2DEF2C0E945802982F89528331C8F45A
:1002300080912F01882359F080912F01813019F48A
:1002400010922F0106C080912F01823011F49092FC
:100250002F018CED95E0F2013197F1F70197D9F775
:100260004CC09B55933108F048C080912F018823E2
:1002700081F581E060E00E941102ADB7BEB71C9726
:100280000FB6F894BEBF0FBEADBFEDB7FEB7319647
:100290001196AC92119712960C937382628214831A
:1002A000E5821782168211861086138612860E94B6
:1002B00064028DB79EB70C960FB6F8949EBF0FBE22
:1002C0008DBF8A2D902F0E94F501BB24CC24DD2404
:1002D0000DC080912F01813019F480922F0106C04A
:1002E00080912F01823011F490922F018CED95E0D6
:1002F000F2013197F1F70197D9F780912F018091A1
:100300002E01882309F48ECF80912F01882309F4D0
:1003100089CF10922E01B3949AE0B91611F4C394C8
:10032000BB24AAE0CA1611F4D394CC24B6E0DB16A1
:1003300009F4DD2480912F01823009F473CF81E02C
:1003400060E00E9411028DB79EB70C970FB6F8942B
:100350009EBF0FBE8DBFEDB7FEB73196ADB7BEB72E
:100360001196AC92119712960C9373826282148349
:10037000E5828D2D992787FD9095978386838C2D17
:10038000992787FD9095918780878B2D992787FDE9
:100390009095938782870E9464028DB79EB70C96D2
:1003A0000FB6F8949EBF0FBE8DBF8A2D902F0E946E
:1003B000F50138CF9BB19F709BB99BB1807F892B92
:1003C0008BB9299A299A299808951F93182F289A4A
:1003D0000E94DA01812F8295807F0E94DA0180E4F9
:1003E0009FE10197F1F71F910895CF93DF93EC01FF
:1003F00002C00E94E50189918823D9F7DF91CF914E
:1004000008951F93182F28980E94DA01812F829552
:10041000807F0E94DA0180E49FE10197F1F71F914C
:100420000895882319F4862F805802C0862F80549F
:100430000E9401020895579A569A559A549A219A01
:10044000209A80E69AEE0197F1F780E30E94DA01A4
:1004500080E29EE40197F1F780E30E94DA0180EEEA
:1004600091E00197F1F780E30E94DA0180E20E94B7
:10047000DA0180E49FE10197F1F788E20E9401022E
:100480008FE00E9401020895ACE7B0E09C91906477
:100490009C939C91982B9C93EAE7F0E08081876085
:1004A00080838C9180628C938081806880830895A2
:1004B00080917A00806480937A0080917A0086FD32
:1004C000FCCF809179000895AEE0B0E0EAE6F2E07A
:1004D0000C9420050D891E898F89988D97FF02C085
:1004E00080E090E801979E838D831A83098386E0DC
:1004F0008C839E01255E3F4FCE010196698D7A8DDA
:10050000A9010E9495024D815E8157FD0AC02F818D
:100510003885421753070CF49A01020F131FF80194
:1005200010822E96E4E00C943C05ABE0B0E0EBE9E1
:10053000F2E00C9412053C012B015A01FC011782D8
:100540001682838181FD03C06FEF7FEFC6C19AE001
:10055000892E1E010894211C311CF3012381F20114
:1005600023FD859123FF81912F01882309F4B2C1D6
:10057000853239F423FD859123FF81912F01853246
:1005800029F490E0B3010E948804E7CF982FFF245C
:10059000EE249924FFE1FF15D0F09B3269F09C32E4
:1005A00028F4903259F0933291F40EC09D3249F004
:1005B000903369F441E024C052E0F52A84E0F82A3F
:1005C00028C098E0F92A25C0E0E1FE2A22C0F7FC05
:1005D00029C0892F80538A3070F4F6FE05C0989C9C
:1005E000902C1124980E15C0E89CE02C1124E80EE4
:1005F000F0E2FF2A0EC09E3229F4F6FC6BC140E403
:10060000F42A07C09C3619F450E8F52A02C098363F
:1006100049F4F20123FD959123FF91912F01992334
:1006200009F0B8CF892F8554833018F08052833079
:1006300038F444E050E0A40EB51E5FE359830FC0C8
:10064000933631F0933779F0933509F056C020C0D6
:10065000F5018081898342E050E0A40EB51E61015E
:1006600001E010E012C0F501C080D180F6FC03C0AB
:100670006FEF7FEF02C0692D70E042E050E0A40E02
:10068000B51EC6010E947D048C015FE7F52214C0EF
:10069000F501C080D180F6FC03C06FEF7FEF02C090
:1006A000692D70E042E050E0A40EB51EC6010E9424
:1006B00072048C0150E8F52AF3FE07C01AC080E2EC
:1006C00090E0B3010E948804EA948E2D90E0081710
:1006D0001907A8F30EC0F601F7FC8591F7FE81918A
:1006E0006F0190E0B3010E948804E110EA94015088
:1006F00010400115110579F7EAC0943611F09936CA
:1007000069F5F7FE08C0F5012081318142815381EE
:1007100084E090E00AC0F501808191819C0144272A
:1007200037FD4095542F82E090E0A80EB91E9FE659
:10073000F92257FF09C050954095309521953F4FBC
:100740004F4F5F4FE0E8FE2ACA01B901A1012AE03C
:1007500030E00E94B404D82ED21840C0953729F456
:100760001F2D1F7E2AE030E01DC01F2D197F9F36F0
:1007700061F0903720F4983509F0ACC00FC0903785
:1007800039F0983709F0A6C004C028E030E00AC06C
:10079000106114FD146020E130E004C014FD166007
:1007A00020E132E017FF08C0F5016081718182818C
:1007B000938144E050E008C0F50180819181BC0143
:1007C00080E090E042E050E0A40EB51EA1010E943E
:1007D000B404D82ED2188FE7F82EF122F6FE0BC003
:1007E0005EEFF522D91438F4F4FE07C0F2FC05C020
:1007F0008FEEF82202C01D2D01C0192DF4FE0DC090
:10080000FE01ED0DF11D8081803319F499EEF9227E
:1008100008C01F5FF2FE05C003C08F2D867809F067
:100820001F5F0F2DF3FC14C0F0FE0FC01E1510F05B
:100830009D2C0BC09D2C9E0C911A1E2D06C080E293
:1008400090E0B3010E9488041F5F1E15C0F304C02E
:100850001E1510F4E11A01C0EE2404FF0FC080E35E
:1008600090E0B3010E94880402FF1DC001FD03C097
:1008700088E790E00EC088E590E00BC0802F867876
:1008800091F001FF02C08BE201C080E2F7FC8DE233
:1008900090E0B3010E94880406C080E390E0B301B9
:1008A0000E9488049A94D914C0F3DA94F101ED0DF2
:1008B000F11D808190E0B3010E948804DD20A9F73A
:1008C00006C080E290E0B3010E948804EA94EE2022
:1008D000C1F743CEF30166817781CB012B96E2E12C
:1008E0000C942E05FC010590615070400110D8F762
:1008F000809590958E0F9F1F0895FC016150704068
:1009000001900110D8F7809590958E0F9F1F089544
:100910000F931F93CF93DF938C01EB018B8181FFAA
:100920001BC082FF0DC02E813F818C819D812817C5
:10093000390764F4E881F9810193F983E88306C0FB
:10094000E885F985802F0995892B31F48E819F8167
:1009500001969F838E8302C00FEF1FEFC801DF91C6
:10096000CF911F910F910895FA01AA27283051F1D4
:10097000203181F1E8946F936E7F6E5F7F4F8F4FD0
:100980009F4FAF4FB1E03ED0B4E03CD0670F781F2F
:10099000891F9A1FA11D680F791F8A1F911DA11D14
:1009A0006A0F711D811D911DA11D20D009F468944D
:1009B0003F912AE0269F11243019305D3193DEF6F5
:1009C000CF010895462F4770405D4193B3E00FD0AB
:1009D000C9F7F6CF462F4F70405D4A3318F0495D96
:1009E00031FD4052419302D0A9F7EACFB4E0A69579
:1009F0009795879577956795BA95C9F7009761059B
:100A0000710508959B01AC010A2E069457954795F0
:100A100037952795BA95C9F7620F731F841F951FE5
:100A2000A01D08952F923F924F925F926F927F92F6
:100A30008F929F92AF92BF92CF92DF92EF92FF92EE
:100A40000F931F93CF93DF93CDB7DEB7CA1BDB0B9A
:100A50000FB6F894DEBF0FBECDBF09942A8839883F
:100A600048885F846E847D848C849B84AA84B98446
:100A7000C884DF80EE80FD800C811B81AA81B98152
:100A8000CE0FD11D0FB6F894DEBF0FBECDBFED0166
:060A90000895F894FFCF69
:100A96002020202020202020202020202020202050
:100AA6002020004572696320447567756179004CA2
:0E0AB6006162203800256425642E256400004E
:00000001FF
