:100000000C9434000C943E000C943E000C943E0082
:100010000C943E000C943E000C943E000C943E0068
:100020000C943E000C943E000C943E000C943E0058
:100030000C943E000C943E000C943E000C943E0048
:100040000C943E000C943E000C943E000C943E0038
:100050000C943E000C943E000C943E000C943E0028
:100060000C943E000C943E0011241FBECFEFD8E04C
:10007000DEBFCDBF0E9440000C94E0000C94000055
:100080000F931F93CF93DF93429A449A0E94B70035
:1000900080E060E00E94AD0010E001E0C0E9D1E046
:1000A00001C010E020E0329902C001E002C0349BA0
:1000B00000E084EF91E0FE013197F1F70197D9F765
:1000C0002F5F2A3081F780E060E00E94AD00812F31
:1000D000805D0E948100002321F01F5F1A300CF721
:1000E00001C0115017FFDECF19E0DCCF9BB19F702C
:1000F0009BB99BB1807F892B8BB9299A299A299822
:1001000008951F93182F289A0E947600812F8295B8
:10011000807F0E94760080E49FE10197F1F71F91B4
:100120000895CF93DF93EC0102C00E948100899172
:100130008823D9F7DF91CF9108951F93182F28981E
:100140000E947600812F8295807F0E94760080E455
:100150009FE10197F1F71F910895882319F4862FE5
:10016000805802C0862F80540E949D000895579A9F
:10017000569A559A549A219A209A80E69AEE0197B7
:10018000F1F780E30E94760080E29EE40197F1F7A8
:1001900080E30E94760080EE91E00197F1F780E322
:1001A0000E94760080E20E94760080E49FE1019741
:1001B000F1F788E20E949D008FE00E949D00089563
:0401C000F894FFCFE1
:00000001FF
