:100000000C9434000C9449000C9449000C94490061
:100010000C9449000C9449000C9449000C9449003C
:100020000C9449000C9449000C9449000C9449002C
:100030000C9449000C9449000C9449000C9449001C
:100040000C9449000C9449000C9449000C9449000C
:100050000C9449000C9449000C9449000C944900FC
:100060000C9449000C94490011241FBECFEFD8E036
:10007000DEBFCDBF11E0A0E0B1E0E0E2F5E002C0FC
:1000800005900D92A234B107D9F70E9464000C9438
:100090008E020C9400000F931F9380E060E00E949A
:1000A000200100E011E0C8010E94040181E060E04D
:1000B0000E942001C8010E94040180E060E00E94CB
:1000C00020011F910F910895AF92BF92CF92DF92BE
:1000D000EF92FF920F931F93CF93DF930E942A0119
:1000E00080E060E00E94200183E00E9453010E94B2
:1000F0006701282F30E0922F8827822B932B0E94B4
:10010000F0010E944B0083E191E00E94040181E034
:1001100064E00E9420018FE191E00E94040180E1EF
:1001200097E220E931E0F9013197F1F70197D9F72A
:100130000E94EB0160E170E00E947301EC010E94FB
:100140004B0080E06C2F0E94200185E291E00E942C
:100150000401FF2400E010E090E4A92E9CE9B92EF0
:1001600003C000E010E0FE2C0E946701E82EE2943C
:100170008FE0E822CE2CDD248F2D992787FD9095E6
:100180008C159D0581F081E06F2D0E94200187E292
:1001900091E00E94040181E06E2D0E94200189E21D
:1001A00091E00E940401C5010197F1F7CC16DD062C
:1001B000C1F60F5F1F4F083C1105A9F60E944B00C6
:1001C00080E060E00E9420018BE291E00E94040147
:1001D000FFCF9BB19F709BB99BB1807F892B8BB95F
:1001E000299A299A299808951F93182F289A0E94CE
:1001F000E900812F8295807F0E94E90080E49FE1E1
:100200000197F1F71F910895CF93DF93EC0102C09E
:100210000E94F40089918823D9F7DF91CF91089546
:100220001F93182F28980E94E900812F8295807FC4
:100230000E94E90080E49FE10197F1F71F91089582
:10024000882319F4862F805802C0862F80540E947C
:1002500010010895579A569A559A549A219A209ABD
:1002600080E69AEE0197F1F780E30E94E90080E2D0
:100270009EE40197F1F780E30E94E90080EE91E0AF
:100280000197F1F780E30E94E90080E20E94E90013
:1002900080E49FE10197F1F788E20E9410018FE06E
:1002A0000E9410010895ACE7B0E09C9190649C938B
:1002B0009C91982B9C93EAE7F0E080818760808393
:1002C0008C9180628C938081806880830895809176
:1002D0007A00806480937A0080917A0086FDFCCF5A
:1002E00080917900089597FB092E07260AD077FDA3
:1002F00004D00CD006D000201AF4709561957F4F81
:100300000895F6F7909581959F4F0895AA1BBB1B02
:1003100051E107C0AA1FBB1FA617B70710F0A61B05
:10032000B70B881F991F5A95A9F780959095BC0126
:10033000CD010895A0E0B0E0E0EAF1E00C943D02C8
:10034000EC01A880B980CA80DB80A114B104C1048B
:10035000D10441F484E2A82E89EDB82E8BE5C82E95
:1003600087E0D82EC601B5012DE133EF41E050E022
:100370000E941A0227EA31E440E050E00E94FB01AB
:100380007B018C01C601B5012DE133EF41E050E066
:100390000E941A02CA01B9012CEE34EF4FEF5FEF51
:1003A0000E94FB016E0D7F1D801F911F97FF04C0EF
:1003B0006150704080409048688379838A839B8332
:1003C0009B013F77C901CDB7DEB7EAE00C94590233
:1003D0000E949A0108958DE391E00E949A01089588
:1003E000A0E0B0E080933D0190933E01A0933F01D7
:1003F000B09340010895629FD001739FF001829FE6
:10040000E00DF11D649FE00DF11D929FF00D839FA3
:10041000F00D749FF00D659FF00D9927729FB00D40
:10042000E11DF91F639FB00DE11DF91FBD01CF0153
:100430001124089597FB092E05260ED057FD04D0F0
:100440004BD00AD0001C38F450954095309521953A
:100450003F4F4F4F5F4F0895F6F7909580957095F9
:1004600061957F4F8F4F9F4F08952F923F924F92EC
:100470005F926F927F928F929F92AF92BF92CF9234
:10048000DF92EF92FF920F931F93CF93DF93CDB73D
:10049000DEB7CA1BDB0B0FB6F894DEBF0FBECDBFB5
:1004A00009942A88398848885F846E847D848C8486
:1004B0009B84AA84B984C884DF80EE80FD800C818F
:1004C0001B81AA81B981CE0FD11D0FB6F894DEBF72
:1004D0000FBECDBFED010895A1E21A2EAA1BBB1BD2
:1004E000FD010DC0AA1FBB1FEE1FFF1FA217B30700
:1004F000E407F50720F0A21BB30BE40BF50B661F16
:10050000771F881F991F1A9469F7609570958095D9
:1005100090959B01AC01BD01CF010895F894FFCFE8
:1005200020202020202020202020202020202020CB
:100530002020004572696320447567756179004C1D
:100540006162203600580020005E00596F75205708
:10055000696E212020202020202020200001000082
:02056000000099
:00000001FF
