:100000000C9434000C9451000C9451000C94510049
:100010000C9488000C9451000C9451000C945100E5
:100020000C9451000C9451000C9451000C9451000C
:100030000C9451000C9451000C9451000C945100FC
:100040000C9451000C9451000C9451000C945100EC
:100050000C9451000C9451000C9451000C945100DC
:100060000C9451000C94510011241FBECFEFD8E026
:10007000DEBFCDBF11E0A0E0B1E0ECEDFBE002C0DF
:1000800005900D92A235B107D9F711E0A2E5B1E0D4
:1000900001C01D92A935B107E1F70E9456010C94E9
:1000A000EC050C94000005966AE070E00E94A30243
:1000B000CB0135E303C0232F2A95F1F701972FEFEA
:1000C0008F3F9207C1F708950F931F93CF93DF934C
:1000D000EC019C0140E050E060E472E48FE090E0CD
:1000E0000E94B6025695479537952795890109C014
:1000F0002C9AC8010E9453002C98C8010E945300FA
:1001000021972097A9F7DF91CF911F910F91089523
:100110001F920F920FB60F9211248F939F9386B167
:10012000982F90729093580182708093550180911E
:100130005601882301F580915801882381F0809130
:100140005501882361F481E0809357018091530128
:1001500090915401019690935401809353018091A2
:100160005801882309F075C080915501882309F44E
:1001700070C083E063C080915601813009F58091A1
:100180005801882381F080915501882361F082E035
:10019000809357018091530190915401019690935F
:1001A00054018093530180915801882309F051C074
:1001B00080915501882309F04CC01092570140C02E
:1001C000809156018230F1F480915801882381F4A6
:1001D00080915501882361F083E0809357018091DD
:1001E00053019091540101969093540180935301CF
:1001F00080915801882369F180915501882349F540
:1002000081E01CC080915801882379F480915501C8
:10021000882359F410925701809153019091540111
:100220000196909354018093530180915801882343
:1002300081F080915501882361F082E0809357011D
:1002400080915301909154010197909354018093B0
:1002500053019091570180915601981739F081E030
:100260008093520180915701809356019F918F9105
:100270000F900FBE0F901F9018950F931F9380E063
:1002800060E00E94700200E011E0C8010E94540288
:1002900081E060E00E947002C8010E94540280E088
:1002A00060E00E9470021F910F910895CF92DF923B
:1002B000EF92FF920F931F93DF93CF93CDB7DEB7EB
:1002C00064970FB6F894DEBF0FBECDBF88B18262CF
:1002D00088B9249A0E947A02809168008260809393
:1002E000680080916C00826280936C0078940E9418
:1002F0003D0180E060E00E94700281E191E00E9497
:10030000540281E064E00E9470028DE191E00E945D
:10031000540280E197E220E931E0F9013197F1F7E9
:100320000197D9F70E943D0183E291E00E945402B7
:1003300086B1982F907290935801827080935501E6
:1003400080915501882339F480915801882319F44C
:100350001092560117C080915501882331F4809185
:100360005801882311F081E00BC08091550188234A
:1003700031F080915801882311F482E001C083E0BC
:100380008093560180915601809357018E010F5F33
:100390001F4F36E0C32ED12C2EE3E22E21E0F22EA9
:1003A000809152018823E1F31092520181E060E0D4
:1003B0000E94700281E391E00E94540281E061E0BA
:1003C0000E94700280915301909154012DB73EB765
:1003D000285030400FB6F8943EBF0FBE2DBFEDB78A
:1003E000FEB73196ADB7BEB712961C930E93119718
:1003F000D382C282F582E482978386830E940703B8
:100400002DB73EB7285F3F4F0FB6F8943EBF0FBEE3
:100410002DBFC8010E945402809153019091540154
:1004200087709070892B09F0BBCF80915301909118
:10043000540197FF08C08091530190915401909509
:1004400081959F4F04C0809153019091540160E4C5
:1004500070E00E94A30268E070E00E94A302FB012A
:10046000EE0FFF1FEF5BFE4F808191810E946400C1
:1004700097CF9BB19F709BB99BB1807F892B8BB924
:10048000299A299A299808951F93182F289A0E942B
:100490003902812F8295807F0E94390280E49FE19A
:1004A0000197F1F71F910895CF93DF93EC0102C0FC
:1004B0000E94440289918823D9F7DF91CF91089552
:1004C0001F93182F28980E943902812F8295807FD0
:1004D0000E94390280E49FE10197F1F71F9108958E
:1004E000882319F4862F805802C0862F80540E94DA
:1004F00060020895579A569A559A549A219A209ACA
:1005000080E69AEE0197F1F780E30E94390280E2DB
:100510009EE40197F1F780E30E94390280EE91E0BA
:100520000197F1F780E30E94390280E20E943902CC
:1005300080E49FE10197F1F788E20E9460028FE07A
:100540000E946002089597FB092E07260AD077FDC6
:1005500004D027D006D000201AF4709561957F4F03
:100560000895F6F7909581959F4F089597FB092E72
:1005700005260ED057FD04D028D00AD0001C38F430
:1005800050954095309521953F4F4F4F5F4F0895BF
:10059000F6F790958095709561957F4F8F4F9F4F9F
:1005A0000895AA1BBB1B51E107C0AA1FBB1FA617BA
:1005B000B70710F0A61BB70B881F991F5A95A9F70C
:1005C00080959095BC01CD010895A1E21A2EAA1B39
:1005D000BB1BFD010DC0AA1FBB1FEE1FFF1FA217F3
:1005E000B307E407F50720F0A21BB30BE40BF50BF0
:1005F000661F771F881F991F1A9469F76095709579
:10060000809590959B01AC01BD01CF010895AEE0AE
:10061000B0E0EDE0F3E00C94C3050D891E898F89ED
:10062000988D97FF02C080E090E801979E838D83AC
:100630001A83098386E08C839E01255E3F4FCE019D
:100640000196698D7A8DA9010E9438034D815E81E2
:1006500057FD0AC02F813885421753070CF49A01C1
:10066000020F131FF80110822E96E4E00C94DF05B0
:10067000ABE0B0E0EEE3F3E00C94B5053C012B01F8
:100680005A01FC0117821682838181FD03C06FEF3E
:100690007FEFC6C19AE0892E1E010894211C311CEF
:1006A000F3012381F20123FD859123FF81912F0125
:1006B000882309F4B2C1853239F423FD859123FFE3
:1006C00081912F01853229F490E0B3010E942B051E
:1006D000E7CF982FFF24EE249924FFE1FF15D0F0F7
:1006E0009B3269F09C3228F4903259F0933291F4A5
:1006F0000EC09D3249F0903369F441E024C052E0CD
:10070000F52A84E0F82A28C098E0F92A25C0E0E11B
:10071000FE2A22C0F7FC29C0892F80538A3070F44A
:10072000F6FE05C0989C902C1124980E15C0E89CEC
:10073000E02C1124E80EF0E2FF2A0EC09E3229F4CC
:10074000F6FC6BC140E4F42A07C09C3619F450E86B
:10075000F52A02C0983649F4F20123FD959123FF52
:1007600091912F01992309F0B8CF892F85548330B7
:1007700018F08052833038F444E050E0A40EB51EE7
:100780005FE359830FC0933631F0933779F0933597
:1007900009F056C020C0F5018081898342E050E015
:1007A000A40EB51E610101E010E012C0F501C08089
:1007B000D180F6FC03C06FEF7FEF02C0692D70E0BF
:1007C00042E050E0A40EB51EC6010E9420058C0137
:1007D0005FE7F52214C0F501C080D180F6FC03C0AC
:1007E0006FEF7FEF02C0692D70E042E050E0A40E91
:1007F000B51EC6010E9415058C0150E8F52AF3FECE
:1008000007C01AC080E290E0B3010E942B05EA9471
:100810008E2D90E008171907A8F30EC0F601F7FC1B
:100820008591F7FE81916F0190E0B3010E942B0545
:10083000E110EA94015010400115110579F7EAC062
:10084000943611F0993669F5F7FE08C0F50120815C
:1008500031814281538184E090E00AC0F5018081BA
:1008600091819C01442737FD4095542F82E090E010
:10087000A80EB91E9FE6F92257FF09C05095409572
:10088000309521953F4F4F4F5F4FE0E8FE2ACA0158
:10089000B901A1012AE030E00E945705D82ED218F4
:1008A00040C0953729F41F2D1F7E2AE030E01DC07F
:1008B0001F2D197F9F3661F0903720F4983509F08D
:1008C000ACC00FC0903739F0983709F0A6C004C00B
:1008D00028E030E00AC0106114FD146020E130E02F
:1008E00004C014FD166020E132E017FF08C0F501D6
:1008F000608171818281938144E050E008C0F501FC
:1009000080819181BC0180E090E042E050E0A40E43
:10091000B51EA1010E945705D82ED2188FE7F82ED8
:10092000F122F6FE0BC05EEFF522D91438F4F4FE86
:1009300007C0F2FC05C08FEEF82202C01D2D01C0D9
:10094000192DF4FE0DC0FE01ED0DF11D80818033E7
:1009500019F499EEF92208C01F5FF2FE05C003C02A
:100960008F2D867809F01F5F0F2DF3FC14C0F0FE69
:100970000FC01E1510F09D2C0BC09D2C9E0C911AC3
:100980001E2D06C080E290E0B3010E942B051F5F80
:100990001E15C0F304C01E1510F4E11A01C0EE24A8
:1009A00004FF0FC080E390E0B3010E942B0502FF1B
:1009B0001DC001FD03C088E790E00EC088E590E00F
:1009C0000BC0802F867891F001FF02C08BE201C03E
:1009D00080E2F7FC8DE290E0B3010E942B0506C097
:1009E00080E390E0B3010E942B059A94D914C0F3E0
:1009F000DA94F101ED0DF11D808190E0B3010E94C8
:100A00002B05DD20A9F706C080E290E0B3010E942B
:100A10002B05EA94EE20C1F743CEF301668177817E
:100A2000CB012B96E2E10C94D105FC0105906150BD
:100A300070400110D8F7809590958E0F9F1F0895F4
:100A4000FC016150704001900110D8F7809590959D
:100A50008E0F9F1F08950F931F93CF93DF938C01E9
:100A6000EB018B8181FF1BC082FF0DC02E813F8176
:100A70008C819D812817390764F4E881F9810193FD
:100A8000F983E88306C0E885F985802F0995892BCD
:100A900031F48E819F8101969F838E8302C00FEF78
:100AA0001FEFC801DF91CF911F910F910895FA01B7
:100AB000AA27283051F1203181F1E8946F936E7F9D
:100AC0006E5F7F4F8F4F9F4FAF4FB1E03ED0B4E08E
:100AD0003CD0670F781F891F9A1FA11D680F791FCF
:100AE0008A1F911DA11D6A0F711D811D911DA11DE0
:100AF00020D009F468943F912AE0269F11243019F0
:100B0000305D3193DEF6CF010895462F4770405D8A
:100B10004193B3E00FD0C9F7F6CF462F4F70405D39
:100B20004A3318F0495D31FD4052419302D0A9F794
:100B3000EACFB4E0A6959795879577956795BA958E
:100B4000C9F700976105710508959B01AC010A2E54
:100B500006945795479537952795BA95C9F7620F2B
:100B6000731F841F951FA01D08952F923F924F92CF
:100B70005F926F927F928F929F92AF92BF92CF922D
:100B8000DF92EF92FF920F931F93CF93DF93CDB736
:100B9000DEB7CA1BDB0B0FB6F894DEBF0FBECDBFAE
:100BA00009942A88398848885F846E847D848C847F
:100BB0009B84AA84B984C884DF80EE80FD800C8188
:100BC0001B81AA81B981CE0FD11D0FB6F894DEBF6B
:0C0BD0000FBECDBFED010895F894FFCFDB
:100BDC002020202020202020202020202020202009
:100BEC00004572696320447567756179004C6162D8
:100BFC002037004D75736963204D616368696E65BC
:100C0C0000202020202020202020202020002564CF
:100C1C0000060126014A015D018801B801EE010BB5
:020C2C000200C4
:00000001FF
